{
  "address": "0x00940D38C8B1C3b16642cf9Ee6F1cA861A8b83F6",
  "abi": [
    {
      "inputs": [
        {
          "internalType": "address",
          "name": "_vrfCoordinator",
          "type": "address"
        },
        {
          "internalType": "address",
          "name": "_link",
          "type": "address"
        },
        {
          "internalType": "bytes32",
          "name": "_keyHash",
          "type": "bytes32"
        },
        {
          "internalType": "uint256",
          "name": "_fee",
          "type": "uint256"
        },
        {
          "internalType": "address",
          "name": "_keeperRegistryAddress",
          "type": "address"
        }
      ],
      "stateMutability": "payable",
      "type": "constructor"
    },
    {
      "anonymous": false,
      "inputs": [
        {
          "indexed": false,
          "internalType": "address",
          "name": "creator",
          "type": "address"
        },
        {
          "indexed": false,
          "internalType": "uint256",
          "name": "uniqueId",
          "type": "uint256"
        },
        {
          "indexed": false,
          "internalType": "string",
          "name": "message",
          "type": "string"
        },
        {
          "indexed": false,
          "internalType": "string",
          "name": "socialLink",
          "type": "string"
        },
        {
          "indexed": false,
          "internalType": "uint256",
          "name": "deadline",
          "type": "uint256"
        },
        {
          "indexed": false,
          "internalType": "uint256",
          "name": "timestamp",
          "type": "uint256"
        },
        {
          "indexed": false,
          "internalType": "uint256",
          "name": "amount",
          "type": "uint256"
        },
        {
          "indexed": false,
          "internalType": "uint256",
          "name": "participationFee",
          "type": "uint256"
        },
        {
          "indexed": false,
          "internalType": "address[]",
          "name": "participants",
          "type": "address[]"
        },
        {
          "indexed": false,
          "internalType": "bool",
          "name": "isLive",
          "type": "bool"
        },
        {
          "indexed": false,
          "internalType": "address",
          "name": "winner",
          "type": "address"
        },
        {
          "indexed": false,
          "internalType": "bool",
          "name": "isProcessing",
          "type": "bool"
        }
      ],
      "name": "GiveawayCreated",
      "type": "event"
    },
    {
      "anonymous": false,
      "inputs": [
        {
          "indexed": false,
          "internalType": "address",
          "name": "creator",
          "type": "address"
        },
        {
          "indexed": false,
          "internalType": "uint256",
          "name": "uniqueId",
          "type": "uint256"
        },
        {
          "indexed": false,
          "internalType": "bool",
          "name": "isLive",
          "type": "bool"
        },
        {
          "indexed": false,
          "internalType": "uint256",
          "name": "amount",
          "type": "uint256"
        },
        {
          "indexed": false,
          "internalType": "uint256",
          "name": "participationFee",
          "type": "uint256"
        },
        {
          "indexed": false,
          "internalType": "address",
          "name": "winner",
          "type": "address"
        }
      ],
      "name": "GiveawayEnded",
      "type": "event"
    },
    {
      "anonymous": false,
      "inputs": [
        {
          "indexed": false,
          "internalType": "address",
          "name": "creator",
          "type": "address"
        },
        {
          "indexed": false,
          "internalType": "uint256",
          "name": "uniqueId",
          "type": "uint256"
        },
        {
          "indexed": false,
          "internalType": "bool",
          "name": "isLive",
          "type": "bool"
        },
        {
          "indexed": false,
          "internalType": "uint256",
          "name": "amount",
          "type": "uint256"
        },
        {
          "indexed": false,
          "internalType": "uint256",
          "name": "participationFee",
          "type": "uint256"
        },
        {
          "indexed": false,
          "internalType": "address[]",
          "name": "participants",
          "type": "address[]"
        }
      ],
      "name": "GiveawayParticipated",
      "type": "event"
    },
    {
      "inputs": [
        {
          "internalType": "address",
          "name": "newAddress",
          "type": "address"
        }
      ],
      "name": "changeOwner",
      "outputs": [
        {
          "internalType": "address",
          "name": "",
          "type": "address"
        }
      ],
      "stateMutability": "nonpayable",
      "type": "function"
    },
    {
      "inputs": [
        {
          "internalType": "bytes",
          "name": "",
          "type": "bytes"
        }
      ],
      "name": "checkUpkeep",
      "outputs": [
        {
          "internalType": "bool",
          "name": "upkeepNeeded",
          "type": "bool"
        },
        {
          "internalType": "bytes",
          "name": "performData",
          "type": "bytes"
        }
      ],
      "stateMutability": "view",
      "type": "function"
    },
    {
      "inputs": [
        {
          "internalType": "string",
          "name": "_message",
          "type": "string"
        },
        {
          "internalType": "string",
          "name": "_socialLink",
          "type": "string"
        },
        {
          "internalType": "uint256",
          "name": "_deadline",
          "type": "uint256"
        }
      ],
      "name": "createGiveaway",
      "outputs": [],
      "stateMutability": "payable",
      "type": "function"
    },
    {
      "inputs": [],
      "name": "currGiveawayId",
      "outputs": [
        {
          "internalType": "uint256",
          "name": "",
          "type": "uint256"
        }
      ],
      "stateMutability": "view",
      "type": "function"
    },
    {
      "inputs": [
        {
          "internalType": "uint256",
          "name": "giveawayId",
          "type": "uint256"
        }
      ],
      "name": "endGiveaway",
      "outputs": [],
      "stateMutability": "nonpayable",
      "type": "function"
    },
    {
      "inputs": [],
      "name": "getAllGiveaways",
      "outputs": [
        {
          "components": [
            {
              "internalType": "address",
              "name": "creator",
              "type": "address"
            },
            {
              "internalType": "uint256",
              "name": "uniqueId",
              "type": "uint256"
            },
            {
              "internalType": "string",
              "name": "message",
              "type": "string"
            },
            {
              "internalType": "string",
              "name": "socialLink",
              "type": "string"
            },
            {
              "internalType": "uint256",
              "name": "deadline",
              "type": "uint256"
            },
            {
              "internalType": "uint256",
              "name": "timestamp",
              "type": "uint256"
            },
            {
              "internalType": "uint256",
              "name": "amount",
              "type": "uint256"
            },
            {
              "internalType": "uint256",
              "name": "participationFee",
              "type": "uint256"
            },
            {
              "internalType": "address[]",
              "name": "participants",
              "type": "address[]"
            },
            {
              "internalType": "bool",
              "name": "isLive",
              "type": "bool"
            },
            {
              "internalType": "address",
              "name": "winner",
              "type": "address"
            },
            {
              "internalType": "bool",
              "name": "isProcessing",
              "type": "bool"
            }
          ],
          "internalType": "struct GiveitOutWeb3.Giveaway[]",
          "name": "",
          "type": "tuple[]"
        }
      ],
      "stateMutability": "view",
      "type": "function"
    },
    {
      "inputs": [],
      "name": "getBalance",
      "outputs": [
        {
          "internalType": "uint256",
          "name": "",
          "type": "uint256"
        }
      ],
      "stateMutability": "view",
      "type": "function"
    },
    {
      "inputs": [
        {
          "internalType": "uint256",
          "name": "percentage",
          "type": "uint256"
        }
      ],
      "name": "getFees",
      "outputs": [],
      "stateMutability": "nonpayable",
      "type": "function"
    },
    {
      "inputs": [],
      "name": "getLinkBalance",
      "outputs": [
        {
          "internalType": "uint256",
          "name": "",
          "type": "uint256"
        }
      ],
      "stateMutability": "view",
      "type": "function"
    },
    {
      "inputs": [
        {
          "internalType": "uint256",
          "name": "giveawayId",
          "type": "uint256"
        }
      ],
      "name": "getParticipants",
      "outputs": [
        {
          "internalType": "address[]",
          "name": "",
          "type": "address[]"
        }
      ],
      "stateMutability": "view",
      "type": "function"
    },
    {
      "inputs": [],
      "name": "getParticipatedGiveaways",
      "outputs": [
        {
          "components": [
            {
              "internalType": "address",
              "name": "creator",
              "type": "address"
            },
            {
              "internalType": "uint256",
              "name": "uniqueId",
              "type": "uint256"
            },
            {
              "internalType": "string",
              "name": "message",
              "type": "string"
            },
            {
              "internalType": "string",
              "name": "socialLink",
              "type": "string"
            },
            {
              "internalType": "uint256",
              "name": "deadline",
              "type": "uint256"
            },
            {
              "internalType": "uint256",
              "name": "timestamp",
              "type": "uint256"
            },
            {
              "internalType": "uint256",
              "name": "amount",
              "type": "uint256"
            },
            {
              "internalType": "uint256",
              "name": "participationFee",
              "type": "uint256"
            },
            {
              "internalType": "address[]",
              "name": "participants",
              "type": "address[]"
            },
            {
              "internalType": "bool",
              "name": "isLive",
              "type": "bool"
            },
            {
              "internalType": "address",
              "name": "winner",
              "type": "address"
            },
            {
              "internalType": "bool",
              "name": "isProcessing",
              "type": "bool"
            }
          ],
          "internalType": "struct GiveitOutWeb3.Giveaway[]",
          "name": "",
          "type": "tuple[]"
        }
      ],
      "stateMutability": "view",
      "type": "function"
    },
    {
      "inputs": [],
      "name": "getTimestamp",
      "outputs": [
        {
          "internalType": "uint256",
          "name": "time",
          "type": "uint256"
        }
      ],
      "stateMutability": "view",
      "type": "function"
    },
    {
      "inputs": [],
      "name": "getWonGiveaways",
      "outputs": [
        {
          "components": [
            {
              "internalType": "address",
              "name": "creator",
              "type": "address"
            },
            {
              "internalType": "uint256",
              "name": "uniqueId",
              "type": "uint256"
            },
            {
              "internalType": "string",
              "name": "message",
              "type": "string"
            },
            {
              "internalType": "string",
              "name": "socialLink",
              "type": "string"
            },
            {
              "internalType": "uint256",
              "name": "deadline",
              "type": "uint256"
            },
            {
              "internalType": "uint256",
              "name": "timestamp",
              "type": "uint256"
            },
            {
              "internalType": "uint256",
              "name": "amount",
              "type": "uint256"
            },
            {
              "internalType": "uint256",
              "name": "participationFee",
              "type": "uint256"
            },
            {
              "internalType": "address[]",
              "name": "participants",
              "type": "address[]"
            },
            {
              "internalType": "bool",
              "name": "isLive",
              "type": "bool"
            },
            {
              "internalType": "address",
              "name": "winner",
              "type": "address"
            },
            {
              "internalType": "bool",
              "name": "isProcessing",
              "type": "bool"
            }
          ],
          "internalType": "struct GiveitOutWeb3.Giveaway[]",
          "name": "",
          "type": "tuple[]"
        }
      ],
      "stateMutability": "view",
      "type": "function"
    },
    {
      "inputs": [],
      "name": "getYourGiveaways",
      "outputs": [
        {
          "components": [
            {
              "internalType": "address",
              "name": "creator",
              "type": "address"
            },
            {
              "internalType": "uint256",
              "name": "uniqueId",
              "type": "uint256"
            },
            {
              "internalType": "string",
              "name": "message",
              "type": "string"
            },
            {
              "internalType": "string",
              "name": "socialLink",
              "type": "string"
            },
            {
              "internalType": "uint256",
              "name": "deadline",
              "type": "uint256"
            },
            {
              "internalType": "uint256",
              "name": "timestamp",
              "type": "uint256"
            },
            {
              "internalType": "uint256",
              "name": "amount",
              "type": "uint256"
            },
            {
              "internalType": "uint256",
              "name": "participationFee",
              "type": "uint256"
            },
            {
              "internalType": "address[]",
              "name": "participants",
              "type": "address[]"
            },
            {
              "internalType": "bool",
              "name": "isLive",
              "type": "bool"
            },
            {
              "internalType": "address",
              "name": "winner",
              "type": "address"
            },
            {
              "internalType": "bool",
              "name": "isProcessing",
              "type": "bool"
            }
          ],
          "internalType": "struct GiveitOutWeb3.Giveaway[]",
          "name": "",
          "type": "tuple[]"
        }
      ],
      "stateMutability": "view",
      "type": "function"
    },
    {
      "inputs": [
        {
          "internalType": "uint256",
          "name": "",
          "type": "uint256"
        }
      ],
      "name": "giveawayMap",
      "outputs": [
        {
          "internalType": "address",
          "name": "creator",
          "type": "address"
        },
        {
          "internalType": "uint256",
          "name": "uniqueId",
          "type": "uint256"
        },
        {
          "internalType": "string",
          "name": "message",
          "type": "string"
        },
        {
          "internalType": "string",
          "name": "socialLink",
          "type": "string"
        },
        {
          "internalType": "uint256",
          "name": "deadline",
          "type": "uint256"
        },
        {
          "internalType": "uint256",
          "name": "timestamp",
          "type": "uint256"
        },
        {
          "internalType": "uint256",
          "name": "amount",
          "type": "uint256"
        },
        {
          "internalType": "uint256",
          "name": "participationFee",
          "type": "uint256"
        },
        {
          "internalType": "bool",
          "name": "isLive",
          "type": "bool"
        },
        {
          "internalType": "address",
          "name": "winner",
          "type": "address"
        },
        {
          "internalType": "bool",
          "name": "isProcessing",
          "type": "bool"
        }
      ],
      "stateMutability": "view",
      "type": "function"
    },
    {
      "inputs": [],
      "name": "isLocked",
      "outputs": [
        {
          "internalType": "bool",
          "name": "",
          "type": "bool"
        }
      ],
      "stateMutability": "view",
      "type": "function"
    },
    {
      "inputs": [],
      "name": "owner",
      "outputs": [
        {
          "internalType": "address",
          "name": "",
          "type": "address"
        }
      ],
      "stateMutability": "view",
      "type": "function"
    },
    {
      "inputs": [
        {
          "internalType": "uint256",
          "name": "giveawayId",
          "type": "uint256"
        }
      ],
      "name": "participate",
      "outputs": [],
      "stateMutability": "payable",
      "type": "function"
    },
    {
      "inputs": [
        {
          "internalType": "bytes",
          "name": "performData",
          "type": "bytes"
        }
      ],
      "name": "performUpkeep",
      "outputs": [],
      "stateMutability": "nonpayable",
      "type": "function"
    },
    {
      "inputs": [
        {
          "internalType": "bytes32",
          "name": "requestId",
          "type": "bytes32"
        },
        {
          "internalType": "uint256",
          "name": "randomness",
          "type": "uint256"
        }
      ],
      "name": "rawFulfillRandomness",
      "outputs": [],
      "stateMutability": "nonpayable",
      "type": "function"
    },
    {
      "inputs": [],
      "name": "rechargeEth",
      "outputs": [],
      "stateMutability": "payable",
      "type": "function"
    },
    {
      "inputs": [],
      "name": "unlockContract",
      "outputs": [],
      "stateMutability": "nonpayable",
      "type": "function"
    }
  ],
  "transactionHash": "0x6efb5f04c22c4a2b4b21fe9d22c05e646af986a98b489c622a69d5ad712b1b3a",
  "args": [
    "0xa555fC018435bef5A13C6c6870a9d4C11DEC329C",
    "0x84b9B910527Ad5C03A9Ca831909E21e236EA7b06",
    "0xcaf3c3727e033261d383b315559476f48034c13b18f8cafed4d871abe5049186",
    "100000000000000000",
    "0xA3E3026562a3ADAF7A761B10a45217c400a4054A"
  ],
  "solcInputHash": "a893ab39522a36edb8fa3249d0a40fc9",
  "bytecode": "0x60c0604081905260006008556009805460ff1916905562002e95388190039081908339810160408190526200003491620000a4565b6001600160601b0319606095861b811660a0529390941b909216608052600355600780546001600160a01b03939093166001600160a01b0319938416179055600455600180549091163317905562000102565b80516001600160a01b03811681146200009f57600080fd5b919050565b600080600080600060a08688031215620000bd57600080fd5b620000c88662000087565b9450620000d86020870162000087565b93506040860151925060608601519150620000f66080870162000087565b90509295509295909350565b60805160601c60a05160601c612d52620001436000396000818161137601526122700152600081816104620152818161215001526122410152612d526000f3fe6080604052600436106101355760003560e01c80638da5cb5b116100ab578063a6f9dae11161006f578063a6f9dae114610337578063b4d082d014610357578063c1e3bd3e1461036a578063d5a06d4c14610397578063e3c528b214610184578063efd7d8f2146103b757600080fd5b80638da5cb5b1461025e57806394985ddd146102965780639f7ebf4e146102b6578063a4e2d634146102ed578063a554c3a71461031757600080fd5b806350c5f975116100fd57806350c5f975146101bc57806357bc3d09146101d157806359c2c931146101f35780636e04ff0d146102085780637322a8c114610236578063845c93061461024b57600080fd5b806312065fe01461013a578063188ec3561461015c57806322f0f2f91461016f5780634184caa6146101865780634585e33b1461019c575b600080fd5b34801561014657600080fd5b50475b6040519081526020015b60405180910390f35b34801561016857600080fd5b5042610149565b34801561017b57600080fd5b506101846103cc565b005b34801561019257600080fd5b5061014960085481565b3480156101a857600080fd5b506101846101b73660046126bd565b6103f4565b3480156101c857600080fd5b5061014961044a565b3480156101dd57600080fd5b506101e66104e9565b6040516101539190612a3b565b3480156101ff57600080fd5b506101e6610875565b34801561021457600080fd5b506102286102233660046126bd565b610b76565b604051610153929190612ba1565b34801561024257600080fd5b506101e6610ce9565b61018461025936600461279c565b61110a565b34801561026a57600080fd5b5060015461027e906001600160a01b031681565b6040516001600160a01b039091168152602001610153565b3480156102a257600080fd5b506101846102b136600461269b565b61136b565b3480156102c257600080fd5b506102d66102d136600461279c565b6113f1565b6040516101539b9a999897969594939291906129a1565b3480156102f957600080fd5b506009546103079060ff1681565b6040519015158152602001610153565b34801561032357600080fd5b5061018461033236600461279c565b611571565b34801561034357600080fd5b5061027e61035236600461259c565b6117c6565b61018461036536600461272f565b611803565b34801561037657600080fd5b5061038a61038536600461279c565b611a77565b6040516101539190612a28565b3480156103a357600080fd5b506101846103b236600461279c565b611b19565b3480156103c357600080fd5b506101e6611c14565b6001546001600160a01b031633146103e357600080fd5b6009805460ff191690556000600855565b6060610402828401846125cc565b905060005b81518110156104445761043282828151811061042557610425612cf0565b6020026020010151611571565b8061043c81612c95565b915050610407565b50505050565b6040516370a0823160e01b81523060048201526000907f00000000000000000000000000000000000000000000000000000000000000006001600160a01b0316906370a082319060240160206040518083038186803b1580156104ac57600080fd5b505afa1580156104c0573d6000803e3d6000fd5b505050506040513d601f19601f820116820180604052508101906104e491906127b5565b905090565b606060006104f660025490565b905060008060005b83811015610571576000600a81610516846001612c1d565b81526020808201929092526040908101600090812060010154808252600a909352208054919250906001600160a01b031633141561055c578361055881612c95565b9450505b5050808061056990612c95565b9150506104fe565b5060008167ffffffffffffffff81111561058d5761058d612d06565b6040519080825280602002602001820160405280156105c657816020015b6105b36123c7565b8152602001906001900390816105ab5790505b50905060005b8481101561086c576000600a816105e4846001612c1d565b81526020808201929092526040908101600090812060010154808252600a909352208054919250906001600160a01b031633141561085757604080516101808101825282546001600160a01b031681526001830154602082015260028301805491928492908401919061065690612c60565b80601f016020809104026020016040519081016040528092919081815260200182805461068290612c60565b80156106cf5780601f106106a4576101008083540402835291602001916106cf565b820191906000526020600020905b8154815290600101906020018083116106b257829003601f168201915b505050505081526020016003820180546106e890612c60565b80601f016020809104026020016040519081016040528092919081815260200182805461071490612c60565b80156107615780601f1061073657610100808354040283529160200191610761565b820191906000526020600020905b81548152906001019060200180831161074457829003601f168201915b5050505050815260200160048201548152602001600582015481526020016006820154815260200160078201548152602001600882018054806020026020016040519081016040528092919081815260200182805480156107eb57602002820191906000526020600020905b81546001600160a01b031681526001909101906020018083116107cd575b50505091835250506009919091015460ff808216151560208401526001600160a01b036101008304166040840152600160a81b909104161515606090910152845185908890811061083e5761083e612cf0565b6020908102919091010152610854600187612c1d565b95505b5050808061086490612c95565b9150506105cc565b50949350505050565b6060600061088260025490565b90506000808267ffffffffffffffff8111156108a0576108a0612d06565b6040519080825280602002602001820160405280156108d957816020015b6108c66123c7565b8152602001906001900390816108be5790505b50905060005b83811015610b6e576000600a816108f7846001612c1d565b815260208082019290925260409081016000908120600190810154808352600a85529183902083516101808101855281546001600160a01b03168152918101549482019490945260028401805492955090928492908401919061095990612c60565b80601f016020809104026020016040519081016040528092919081815260200182805461098590612c60565b80156109d25780601f106109a7576101008083540402835291602001916109d2565b820191906000526020600020905b8154815290600101906020018083116109b557829003601f168201915b505050505081526020016003820180546109eb90612c60565b80601f0160208091040260200160405190810160405280929190818152602001828054610a1790612c60565b8015610a645780601f10610a3957610100808354040283529160200191610a64565b820191906000526020600020905b815481529060010190602001808311610a4757829003601f168201915b505050505081526020016004820154815260200160058201548152602001600682015481526020016007820154815260200160088201805480602002602001604051908101604052809291908181526020018280548015610aee57602002820191906000526020600020905b81546001600160a01b03168152600190910190602001808311610ad0575b50505091835250506009919091015460ff808216151560208401526001600160a01b036101008304166040840152600160a81b9091041615156060909101528451859087908110610b4157610b41612cf0565b6020908102919091010152610b57600186612c1d565b945050508080610b6690612c95565b9150506108df565b509392505050565b600060608160015b6002548111610be2576000818152600a60205260408120600401544210801590610bb957506000828152600a602052604090206009015460ff165b90508015610bcf5782610bcb81612c95565b9350505b5080610bda81612c95565b915050610b7e565b508015610ce1576001925060008167ffffffffffffffff811115610c0857610c08612d06565b604051908082528060200260200182016040528015610c31578160200160208202803683370190505b509050600060015b6002548111610cbb576000818152600a60205260408120600401544210801590610c7457506000828152600a602052604090206009015460ff165b90508015610ca85781848481518110610c8f57610c8f612cf0565b602090810291909101015282610ca481612c95565b9350505b5080610cb381612c95565b915050610c39565b5081604051602001610ccd9190612b5d565b604051602081830303815290604052935050505b509250929050565b60606000610cf660025490565b905060008060005b83811015610dc0576000600a81610d16846001612c1d565b81526020019081526020016000206001015490506000600a6000838152602001908152602001600020905060005b6008820154811015610daa57336001600160a01b0316826008018281548110610d6f57610d6f612cf0565b6000918252602090912001546001600160a01b03161415610d985784610d9481612c95565b9550505b80610da281612c95565b915050610d44565b5050508080610db890612c95565b915050610cfe565b5060008167ffffffffffffffff811115610ddc57610ddc612d06565b604051908082528060200260200182016040528015610e1557816020015b610e026123c7565b815260200190600190039081610dfa5790505b50905060005b8481101561086c576000600a81610e33846001612c1d565b81526020019081526020016000206001015490506000600a6000838152602001908152602001600020905060005b60088201548110156110f457336001600160a01b0316826008018281548110610e8c57610e8c612cf0565b6000918252602090912001546001600160a01b031614156110e257604080516101808101825283546001600160a01b0316815260018401546020820152600284018054919285929084019190610ee190612c60565b80601f0160208091040260200160405190810160405280929190818152602001828054610f0d90612c60565b8015610f5a5780601f10610f2f57610100808354040283529160200191610f5a565b820191906000526020600020905b815481529060010190602001808311610f3d57829003601f168201915b50505050508152602001600382018054610f7390612c60565b80601f0160208091040260200160405190810160405280929190818152602001828054610f9f90612c60565b8015610fec5780601f10610fc157610100808354040283529160200191610fec565b820191906000526020600020905b815481529060010190602001808311610fcf57829003601f168201915b50505050508152602001600482015481526020016005820154815260200160068201548152602001600782015481526020016008820180548060200260200160405190810160405280929190818152602001828054801561107657602002820191906000526020600020905b81546001600160a01b03168152600190910190602001808311611058575b50505091835250506009919091015460ff808216151560208401526001600160a01b036101008304166040840152600160a81b90910416151560609091015285518690899081106110c9576110c9612cf0565b60209081029190910101526110df600188612c1d565b96505b806110ec81612c95565b915050610e61565b505050808061110290612c95565b915050610e1b565b6000818152600a602052604090206001015481906111435760405162461bcd60e51b815260040161113a90612bbc565b60405180910390fd5b6000828152600a60205260409020600981015460ff1615156001146111aa5760405162461bcd60e51b815260206004820152601a60248201527f476976656177617920686173206265656e2066696e6973686564000000000000604482015260640161113a565b42816004015410156111f65760405162461bcd60e51b815260206004820152601560248201527423b4bb32b0bbb0bc903a34b6b29034b99037bb32b960591b604482015260640161113a565b60005b600882015481101561129957336001600160a01b031682600801828154811061122457611224612cf0565b6000918252602090912001546001600160a01b031614156112875760405162461bcd60e51b815260206004820152601c60248201527f596f752063616e6e6f7420706172746963697061746520747769636500000000604482015260640161113a565b8061129181612c95565b9150506111f9565b5034816007015411156112e15760405162461bcd60e51b815260206004820152601060248201526f496e73756666696369656e742066656560801b604482015260640161113a565b6008810180546001818101835560008381526020902090910180546001600160a01b031916331790558254908301546009840154600685015460078601546040517f0a1b826e08eafd5b23617b422a0edc2764f314d2ec7d1cd8effdf2cdd155bcfc9661135e966001600160a01b0316959460ff1693929161285f565b60405180910390a1505050565b336001600160a01b037f000000000000000000000000000000000000000000000000000000000000000016146113e35760405162461bcd60e51b815260206004820152601f60248201527f4f6e6c7920565246436f6f7264696e61746f722063616e2066756c66696c6c00604482015260640161113a565b6113ed8282611fc9565b5050565b600a602052600090815260409020805460018201546002830180546001600160a01b0390931693919261142390612c60565b80601f016020809104026020016040519081016040528092919081815260200182805461144f90612c60565b801561149c5780601f106114715761010080835404028352916020019161149c565b820191906000526020600020905b81548152906001019060200180831161147f57829003601f168201915b5050505050908060030180546114b190612c60565b80601f01602080910402602001604051908101604052809291908181526020018280546114dd90612c60565b801561152a5780601f106114ff5761010080835404028352916020019161152a565b820191906000526020600020905b81548152906001019060200180831161150d57829003601f168201915b505050600484015460058501546006860154600787015460099097015495969295919450925060ff808216916001600160a01b0361010082041691600160a81b909104168b565b6000818152600a602052604090206001015481906115a15760405162461bcd60e51b815260040161113a90612bbc565b60095460ff16156115ed5760405162461bcd60e51b8152602060048201526016602482015275283632b0b9b2903a393c9030b3b0b4b7103630ba32b960511b604482015260640161113a565b6000828152600a6020526040902080546001600160a01b031633148061161d57506001546001600160a01b031633145b8061163257506007546001600160a01b031633145b61166f5760405162461bcd60e51b815260206004820152600e60248201526d139bdd08105d5d1a1bdc9a5e995960921b604482015260640161113a565b42816004015411156116ba5760405162461bcd60e51b8152602060048201526014602482015273111958591b1a5b99481b9bdd081c995858da195960621b604482015260640161113a565b600981015460ff16151560011461170c5760405162461bcd60e51b815260206004820152601660248201527511da5d99585dd85e48185b1c9958591e48195b99195960521b604482015260640161113a565b6000838152600a602052604090206009908101805460ff60a81b1916600160a81b1790556008849055805460ff19166001179055611748612132565b5080546001820154600983015460068401546007850154604080516001600160a01b039687168152602081019590955260ff841615159085015260608401919091526080830152610100900490911660a08201527f17a94aa8d482f747c58305afc4211aa72a03f6b23a05bb2caf73f9dac38325c89060c00161135e565b6001546000906001600160a01b031633146117e057600080fd5b50600180546001600160a01b0319166001600160a01b0392909216918217905590565b8042106118455760405162461bcd60e51b815260206004820152601060248201526f456e7465722076616c69642074696d6560801b604482015260640161113a565b600034116118865760405162461bcd60e51b815260206004820152600e60248201526d2737903b30b63ab29033b4bb32b760911b604482015260640161113a565b6000611893606434612c35565b905060606118a5600280546001019055565b60006118b060025490565b604080516101808101825233815260208082018481528284018b8152606084018b9052608084018a90524260a08501523460c085015260e08401899052610100840188905260016101208501819052600061014086018190526101608601819052878152600a855295909520845181546001600160a01b0319166001600160a01b0390911617815591519482019490945592518051949550919361195a926002850192019061243e565b506060820151805161197691600384019160209091019061243e565b506080820151600482015560a0820151600582015560c0820151600682015560e0820151600782015561010082015180516119bb9160088401916020909101906124c2565b5061012082015160099091018054610140840151610160909401511515600160a81b0260ff60a81b196001600160a01b0390951661010002610100600160a81b0319941515949094166001600160a81b03199092169190911792909217929092161790556040517f94b7cc257f82b07ba08e9ab558a11e1c042f633454cddc5ae6fd82bb3a27f68f90611a6790339084908a908a908a90429034908c908c90600190600090819061290c565b60405180910390a1505050505050565b6000818152600a60205260409020600101546060908290611aaa5760405162461bcd60e51b815260040161113a90612bbc565b6000838152600a602090815260409182902060080180548351818402810184019094528084529091830182828015611b0b57602002820191906000526020600020905b81546001600160a01b03168152600190910190602001808311611aed575b505050505091505b50919050565b6001546001600160a01b03163314611b3057600080fd5b6000611b3b60025490565b90506000805b82811015611bba576000600a81611b59846001612c1d565b815260208082019290925260409081016000908120600190810154808352600a90945291902060098101549293509160ff1615151415611ba5576006810154611ba29085612c1d565b93505b50508080611bb290612c95565b915050611b41565b50600083611bc88347612c49565b611bd29190612c35565b6001546040519192506001600160a01b03169082156108fc029083906000818181858888f19350505050158015611c0d573d6000803e3d6000fd5b5050505050565b60606000611c2160025490565b905060008060005b83811015611cb5576000600a81611c41846001612c1d565b81526020808201929092526040908101600090812060010154808252600a9093522060098101549192509061010090046001600160a01b031633148015611c8d5750600981015460ff16155b15611ca05783611c9c81612c95565b9450505b50508080611cad90612c95565b915050611c29565b5060008167ffffffffffffffff811115611cd157611cd1612d06565b604051908082528060200260200182016040528015611d0a57816020015b611cf76123c7565b815260200190600190039081611cef5790505b50905060005b8481101561086c576000600a81611d28846001612c1d565b81526020808201929092526040908101600090812060010154808252600a9093522060098101549192509061010090046001600160a01b031633148015611d745750600981015460ff16155b15611fb457604080516101808101825282546001600160a01b0316815260018301546020820152600283018054919284929084019190611db390612c60565b80601f0160208091040260200160405190810160405280929190818152602001828054611ddf90612c60565b8015611e2c5780601f10611e0157610100808354040283529160200191611e2c565b820191906000526020600020905b815481529060010190602001808311611e0f57829003601f168201915b50505050508152602001600382018054611e4590612c60565b80601f0160208091040260200160405190810160405280929190818152602001828054611e7190612c60565b8015611ebe5780601f10611e9357610100808354040283529160200191611ebe565b820191906000526020600020905b815481529060010190602001808311611ea157829003601f168201915b505050505081526020016004820154815260200160058201548152602001600682015481526020016007820154815260200160088201805480602002602001604051908101604052809291908181526020018280548015611f4857602002820191906000526020600020905b81546001600160a01b03168152600190910190602001808311611f2a575b50505091835250506009919091015460ff808216151560208401526001600160a01b036101008304166040840152600160a81b9091041615156060909101528451859088908110611f9b57611f9b612cf0565b6020908102919091010152611fb1600187612c1d565b95505b50508080611fc190612c95565b915050611d10565b600880546000908152600a602052604090209081015461202657805460068201546040516001600160a01b039092169181156108fc0291906000818181858888f19350505050158015612020573d6000803e3d6000fd5b506120ef565b60088101546000906120389084612cb0565b905081600801818154811061204f5761204f612cf0565b600091825260208220015460068401546040516001600160a01b039092169281156108fc029290818181858888f19350505050158015612093573d6000803e3d6000fd5b508160080181815481106120a9576120a9612cf0565b60009182526020808320909101546008548352600a909152604090912060090180546001600160a01b0390921661010002610100600160a81b0319909216919091179055505b5050600880546000908152600a60205260408082206009908101805460ff60a81b19169055835483529082208101805460ff199081169091558154169055905550565b600480546040516370a0823160e01b815230928101929092526000917f00000000000000000000000000000000000000000000000000000000000000006001600160a01b0316906370a082319060240160206040518083038186803b15801561219a57600080fd5b505afa1580156121ae573d6000803e3d6000fd5b505050506040513d601f19601f820116820180604052508101906121d291906127b5565b10156122345760405162461bcd60e51b815260206004820152602b60248201527f4e6f7420656e6f756768204c494e4b202d2066696c6c20636f6e74726163742060448201526a1dda5d1a0819985d58d95d60aa1b606482015260840161113a565b6104e460035460045460007f00000000000000000000000000000000000000000000000000000000000000006001600160a01b0316634000aea07f0000000000000000000000000000000000000000000000000000000000000000848660006040516020016122ad929190918252602082015260400190565b6040516020818303038152906040526040518463ffffffff1660e01b81526004016122da939291906128dc565b602060405180830381600087803b1580156122f457600080fd5b505af1158015612308573d6000803e3d6000fd5b505050506040513d601f19601f8201168201806040525081019061232c9190612679565b5060008381526020818152604080832054815180840188905280830185905230606082015260808082018390528351808303909101815260a090910190925281519183019190912086845292909152612386906001612c1d565b60008581526020818152604091829020929092558051808301879052808201849052815180820383018152606090910190915280519101205b949350505050565b60405180610180016040528060006001600160a01b03168152602001600081526020016060815260200160608152602001600081526020016000815260200160008152602001600081526020016060815260200160001515815260200160006001600160a01b031681526020016000151581525090565b82805461244a90612c60565b90600052602060002090601f01602090048101928261246c57600085556124b2565b82601f1061248557805160ff19168380011785556124b2565b828001600101855582156124b2579182015b828111156124b2578251825591602001919060010190612497565b506124be929150612517565b5090565b8280548282559060005260206000209081019282156124b2579160200282015b828111156124b257825182546001600160a01b0319166001600160a01b039091161782556020909201916001909101906124e2565b5b808211156124be5760008155600101612518565b600082601f83011261253d57600080fd5b813567ffffffffffffffff81111561255757612557612d06565b61256a601f8201601f1916602001612bec565b81815284602083860101111561257f57600080fd5b816020850160208301376000918101602001919091529392505050565b6000602082840312156125ae57600080fd5b81356001600160a01b03811681146125c557600080fd5b9392505050565b600060208083850312156125df57600080fd5b823567ffffffffffffffff808211156125f757600080fd5b818501915085601f83011261260b57600080fd5b81358181111561261d5761261d612d06565b8060051b915061262e848301612bec565b8181528481019084860184860187018a101561264957600080fd5b600095505b8386101561266c57803583526001959095019491860191860161264e565b5098975050505050505050565b60006020828403121561268b57600080fd5b815180151581146125c557600080fd5b600080604083850312156126ae57600080fd5b50508035926020909101359150565b600080602083850312156126d057600080fd5b823567ffffffffffffffff808211156126e857600080fd5b818501915085601f8301126126fc57600080fd5b81358181111561270b57600080fd5b86602082850101111561271d57600080fd5b60209290920196919550909350505050565b60008060006060848603121561274457600080fd5b833567ffffffffffffffff8082111561275c57600080fd5b6127688783880161252c565b9450602086013591508082111561277e57600080fd5b5061278b8682870161252c565b925050604084013590509250925092565b6000602082840312156127ae57600080fd5b5035919050565b6000602082840312156127c757600080fd5b5051919050565b600081518084526020808501945080840160005b838110156128075781516001600160a01b0316875295820195908201906001016127e2565b509495945050505050565b6000815180845260005b818110156128385760208185018101518683018201520161281c565b8181111561284a576000602083870101525b50601f01601f19169290920160200192915050565b600060c0820160018060a01b03808a16845260208981860152881515604086015287606086015286608086015260c060a086015282865480855260e0870191508760005282600020945060005b818110156128ca5785548516835260019586019592840192016128ac565b50909c9b505050505050505050505050565b60018060a01b03841681528260208201526060604082015260006129036060830184612812565b95945050505050565b600060018060a01b03808f1683528d6020840152610180604084015261293661018084018e612812565b8381036060850152612948818e612812565b90508b60808501528a60a08501528960c08501528860e085015283810361010085015261297581896127ce565b961515610120850152509390931661014082015290151561016090910152509998505050505050505050565b6001600160a01b038c81168252602082018c9052610160604083018190526000916129ce8483018e612812565b915083820360608501526129e2828d612812565b608085019b909b5260a0840199909952505060c081019590955260e085019390935290151561010084015290921661012082015290151561014090910152949350505050565b6020815260006125c560208301846127ce565b60006020808301818452808551808352604092508286019150828160051b87010184880160005b83811015612b4f57888303603f19018552815180516001600160a01b031684526101808882015189860152878201518189870152612aa282870182612812565b91505060608083015186830382880152612abc8382612812565b6080858101519089015260a0808601519089015260c0808601519089015260e0808601519089015261010080860151898303828b015291945092509050612b0383826127ce565b9250505061012080830151612b1b8288018215159052565b5050610140828101516001600160a01b03169086015261016091820151151591909401529386019390860190600101612a62565b509098975050505050505050565b6020808252825182820181905260009190848201906040850190845b81811015612b9557835183529284019291840191600101612b79565b50909695505050505050565b82151581526040602082015260006123bf6040830184612812565b60208082526016908201527511da5d99585dd85e48191bd95cdb89dd08195e1a5cdd60521b604082015260600190565b604051601f8201601f1916810167ffffffffffffffff81118282101715612c1557612c15612d06565b604052919050565b60008219821115612c3057612c30612cc4565b500190565b600082612c4457612c44612cda565b500490565b600082821015612c5b57612c5b612cc4565b500390565b600181811c90821680612c7457607f821691505b60208210811415611b1357634e487b7160e01b600052602260045260246000fd5b6000600019821415612ca957612ca9612cc4565b5060010190565b600082612cbf57612cbf612cda565b500690565b634e487b7160e01b600052601160045260246000fd5b634e487b7160e01b600052601260045260246000fd5b634e487b7160e01b600052603260045260246000fd5b634e487b7160e01b600052604160045260246000fdfea2646970667358221220c5a9c84c4d035c8103ebfccc3810a92629011f39963e7d987cb3b2b6a17ca01c64736f6c63430008070033",
  "devdoc": {
    "kind": "dev",
    "methods": {
      "performUpkeep(bytes)": {
        "details": "The input to this method should not be trusted, and the caller of the method should not even be restricted to any single registry. Anyone should be able call it, and the input should be validated, there is no guarantee that the data passed in is the performData returned from checkUpkeep. This could happen due to malicious keepers, racing keepers, or simply a state change while the performUpkeep transaction is waiting for confirmation. Always validate the data passed in.",
        "params": {
          "performData": "is the data which was passed back from the checkData simulation. If it is encoded, it can easily be decoded into other types by calling `abi.decode`. This data should not be trusted, and should be validated against the contract's current state."
        }
      }
    },
    "version": 1
  },
  "userdoc": {
    "kind": "user",
    "methods": {
      "performUpkeep(bytes)": {
        "notice": "method that is actually executed by the keepers, via the registry. The data returned by the checkUpkeep simulation will be passed into this method to actually be executed."
      }
    },
    "version": 1
  },
  "storageLayout": {
    "storage": [
      {
        "astId": 118,
        "contract": "contracts/GiveitOutWeb3.sol:GiveitOutWeb3",
        "label": "nonces",
        "offset": 0,
        "slot": "0",
        "type": "t_mapping(t_bytes32,t_uint256)"
      },
      {
        "astId": 2498,
        "contract": "contracts/GiveitOutWeb3.sol:GiveitOutWeb3",
        "label": "owner",
        "offset": 0,
        "slot": "1",
        "type": "t_address"
      },
      {
        "astId": 2505,
        "contract": "contracts/GiveitOutWeb3.sol:GiveitOutWeb3",
        "label": "giveawayNumber",
        "offset": 0,
        "slot": "2",
        "type": "t_struct(Counter)2055_storage"
      },
      {
        "astId": 2507,
        "contract": "contracts/GiveitOutWeb3.sol:GiveitOutWeb3",
        "label": "keyHash",
        "offset": 0,
        "slot": "3",
        "type": "t_bytes32"
      },
      {
        "astId": 2509,
        "contract": "contracts/GiveitOutWeb3.sol:GiveitOutWeb3",
        "label": "fee",
        "offset": 0,
        "slot": "4",
        "type": "t_uint256"
      },
      {
        "astId": 2511,
        "contract": "contracts/GiveitOutWeb3.sol:GiveitOutWeb3",
        "label": "vrfCoordinator",
        "offset": 0,
        "slot": "5",
        "type": "t_address"
      },
      {
        "astId": 2513,
        "contract": "contracts/GiveitOutWeb3.sol:GiveitOutWeb3",
        "label": "link",
        "offset": 0,
        "slot": "6",
        "type": "t_address"
      },
      {
        "astId": 2515,
        "contract": "contracts/GiveitOutWeb3.sol:GiveitOutWeb3",
        "label": "keeperRegistryAddress",
        "offset": 0,
        "slot": "7",
        "type": "t_address"
      },
      {
        "astId": 2518,
        "contract": "contracts/GiveitOutWeb3.sol:GiveitOutWeb3",
        "label": "currGiveawayId",
        "offset": 0,
        "slot": "8",
        "type": "t_uint256"
      },
      {
        "astId": 2521,
        "contract": "contracts/GiveitOutWeb3.sol:GiveitOutWeb3",
        "label": "isLocked",
        "offset": 0,
        "slot": "9",
        "type": "t_bool"
      },
      {
        "astId": 2669,
        "contract": "contracts/GiveitOutWeb3.sol:GiveitOutWeb3",
        "label": "giveawayMap",
        "offset": 0,
        "slot": "10",
        "type": "t_mapping(t_uint256,t_struct(Giveaway)2664_storage)"
      }
    ],
    "types": {
      "t_address": {
        "encoding": "inplace",
        "label": "address",
        "numberOfBytes": "20"
      },
      "t_array(t_address)dyn_storage": {
        "base": "t_address",
        "encoding": "dynamic_array",
        "label": "address[]",
        "numberOfBytes": "32"
      },
      "t_bool": {
        "encoding": "inplace",
        "label": "bool",
        "numberOfBytes": "1"
      },
      "t_bytes32": {
        "encoding": "inplace",
        "label": "bytes32",
        "numberOfBytes": "32"
      },
      "t_mapping(t_bytes32,t_uint256)": {
        "encoding": "mapping",
        "key": "t_bytes32",
        "label": "mapping(bytes32 => uint256)",
        "numberOfBytes": "32",
        "value": "t_uint256"
      },
      "t_mapping(t_uint256,t_struct(Giveaway)2664_storage)": {
        "encoding": "mapping",
        "key": "t_uint256",
        "label": "mapping(uint256 => struct GiveitOutWeb3.Giveaway)",
        "numberOfBytes": "32",
        "value": "t_struct(Giveaway)2664_storage"
      },
      "t_string_storage": {
        "encoding": "bytes",
        "label": "string",
        "numberOfBytes": "32"
      },
      "t_struct(Counter)2055_storage": {
        "encoding": "inplace",
        "label": "struct Counters.Counter",
        "members": [
          {
            "astId": 2054,
            "contract": "contracts/GiveitOutWeb3.sol:GiveitOutWeb3",
            "label": "_value",
            "offset": 0,
            "slot": "0",
            "type": "t_uint256"
          }
        ],
        "numberOfBytes": "32"
      },
      "t_struct(Giveaway)2664_storage": {
        "encoding": "inplace",
        "label": "struct GiveitOutWeb3.Giveaway",
        "members": [
          {
            "astId": 2640,
            "contract": "contracts/GiveitOutWeb3.sol:GiveitOutWeb3",
            "label": "creator",
            "offset": 0,
            "slot": "0",
            "type": "t_address"
          },
          {
            "astId": 2642,
            "contract": "contracts/GiveitOutWeb3.sol:GiveitOutWeb3",
            "label": "uniqueId",
            "offset": 0,
            "slot": "1",
            "type": "t_uint256"
          },
          {
            "astId": 2644,
            "contract": "contracts/GiveitOutWeb3.sol:GiveitOutWeb3",
            "label": "message",
            "offset": 0,
            "slot": "2",
            "type": "t_string_storage"
          },
          {
            "astId": 2646,
            "contract": "contracts/GiveitOutWeb3.sol:GiveitOutWeb3",
            "label": "socialLink",
            "offset": 0,
            "slot": "3",
            "type": "t_string_storage"
          },
          {
            "astId": 2648,
            "contract": "contracts/GiveitOutWeb3.sol:GiveitOutWeb3",
            "label": "deadline",
            "offset": 0,
            "slot": "4",
            "type": "t_uint256"
          },
          {
            "astId": 2650,
            "contract": "contracts/GiveitOutWeb3.sol:GiveitOutWeb3",
            "label": "timestamp",
            "offset": 0,
            "slot": "5",
            "type": "t_uint256"
          },
          {
            "astId": 2652,
            "contract": "contracts/GiveitOutWeb3.sol:GiveitOutWeb3",
            "label": "amount",
            "offset": 0,
            "slot": "6",
            "type": "t_uint256"
          },
          {
            "astId": 2654,
            "contract": "contracts/GiveitOutWeb3.sol:GiveitOutWeb3",
            "label": "participationFee",
            "offset": 0,
            "slot": "7",
            "type": "t_uint256"
          },
          {
            "astId": 2657,
            "contract": "contracts/GiveitOutWeb3.sol:GiveitOutWeb3",
            "label": "participants",
            "offset": 0,
            "slot": "8",
            "type": "t_array(t_address)dyn_storage"
          },
          {
            "astId": 2659,
            "contract": "contracts/GiveitOutWeb3.sol:GiveitOutWeb3",
            "label": "isLive",
            "offset": 0,
            "slot": "9",
            "type": "t_bool"
          },
          {
            "astId": 2661,
            "contract": "contracts/GiveitOutWeb3.sol:GiveitOutWeb3",
            "label": "winner",
            "offset": 1,
            "slot": "9",
            "type": "t_address"
          },
          {
            "astId": 2663,
            "contract": "contracts/GiveitOutWeb3.sol:GiveitOutWeb3",
            "label": "isProcessing",
            "offset": 21,
            "slot": "9",
            "type": "t_bool"
          }
        ],
        "numberOfBytes": "320"
      },
      "t_uint256": {
        "encoding": "inplace",
        "label": "uint256",
        "numberOfBytes": "32"
      }
    }
  }
}